:100000000C9490000C948F0A0C94680A0C94B8001D
:100010000C94B8000C94B8000C94B8000C94B80080
:100020000C94B8000C94B8000C94B8000C94B80070
:100030000C94B8000C94B8000C94B8000C94B80060
:100040000C941E0A0C94B8000C94DC0A0C94B60AAA
:100050000C94B8000C94B8000C94B8000C94B80040
:100060000C94B8000C94B80008000000BE9224491B
:10007000123EABAAAA2ABECDCCCC4C3E00000080DA
:10008000BEABAAAAAA3E00000000BF000000803F4D
:100090000000000000084178D3BB4387D1133D190D
:1000A0000E3CC3BD4282AD2B3E68EC8276BED98F3A
:1000B000E1A93E4C80EFFFBE01C4FF7F3F0000007E
:1000C000000000000000240027002A0001020408AC
:1000D00010204080010204081020010204081020B2
:1000E00000000008000201000003040700000000F7
:1000F0000000000000000000250028002B00000088
:10010000000023002600290004040404040404045D
:100110000202020202020303030303030E0B710F28
:1001200011241FBECFEFD8E0DEBFCDBF11E0A0E0AD
:10013000B1E0E8ECF7E202C005900D92A638B107F5
:10014000D9F722E0A6E8B1E001C01D92A238B207BB
:10015000E1F710E0CFE8D0E004C02197FE010E9453
:10016000DC0FCE38D107C9F70E94E10B0C94D713EE
:100170000C9400000895E62FF0E0E85FFE4FE49154
:10018000F0E0EE0FFF1FE250FF4FA591B4918C916C
:100190000895E62FF0E0E85FFE4FE491F0E0EE0F07
:1001A000FF1FEC50FF4FA591B4914C930895089513
:1001B0000895FC0186858370823039F40190F081C6
:1001C000E02D858191E0892708958485829581704D
:1001D0000895CF93DF93EC018E8583FF0BC0888158
:1001E0009981009739F0DC01ED91FC910480F58153
:1001F000E02D0995198218821C821D821E821F82A1
:1002000082E08C87F8941B821A8278941D86DF9195
:10021000CF910895DC01ED91FC91F89480818111DA
:1002200002C0789408951082FCCFDC016D937C931A
:10023000DC01ED91FC91F8942081222311F0789457
:10024000F7CF81E0808378940895EF92FF920F9327
:100250001F93CF93DF9300D0CDB7DEB77C018B0126
:10026000BC016E5E7F4FCE0101960E941501F8948D
:10027000F701A485B5857894109791F00A171B07AC
:10028000E1F4F894F801828193817894F894F7016D
:10029000958784877894F894F80113821282789471
:1002A000CE0101960E940A010F900F90DF91CF912D
:1002B0001F910F91FF90EF900895F8941296ED9191
:1002C000FC9113977894309759F3E017F10761F494
:1002D000F894828193817894F89413969C938E93EA
:1002E00012977894F894D9CFF89482819381789476
:1002F000DF01FC01E8CF833081F028F4813099F0F0
:100300008230A9F008958730A9F08830C9F0843090
:10031000B1F4809180008F7D03C0809180008F7741
:1003200080938000089584B58F7784BD089584B547
:100330008F7DFBCF8091B0008F778093B0000895C0
:100340008091B0008F7DF9CFCF93DF93282F30E0DD
:10035000F901E052FF4F8491F901E453FF4FD4912A
:10036000F901E85FFE4FC491CC23A1F081110E94F6
:100370007B01EC2FF0E0EE0FFF1FE250FF4FA59145
:10038000B491EC91ED2381E090E009F480E0DF91FD
:10039000CF91089580E090E0FACF862F0E94A401CB
:1003A00008951F93CF93DF93282F30E0F901E05297
:1003B000FF4F8491F901E453FF4FD491F901E85FB5
:1003C000FE4FC491CC23A9F0162F81110E947B010E
:1003D000EC2FF0E0EE0FFF1FEC50FF4FA591B49112
:1003E0008FB7F894EC91111108C0D095DE23DC93FF
:1003F0008FBFDF91CF911F910895DE2BF8CF862F0D
:10040000642F0C94D101CF93DF9390E0FC01E4536F
:10041000FF4F2491885F9E4FFC0184918823C9F08F
:1004200090E0880F991FFC01EE53FF4FA591B49106
:10043000FC01EC50FF4FC591D49161110DC09FB7E5
:10044000F8948C91209582238C938881282328838B
:100450009FBFDF91CF910895623051F49FB7F89418
:100460003C91822F809583238C93E8812E2BEFCFB4
:100470008FB7F894EC912E2B2C938FBFEACF862F59
:10048000642F0C9403023FB7F8948091A7019091D8
:10049000A801A091A901B091AA0126B5A89B05C009
:1004A0002F3F19F00196A11DB11D3FBFBA2FA92FF3
:1004B000982F8827BC01CD01620F711D811D911DF0
:1004C00042E0660F771F881F991F4A95D1F708955C
:1004D000CF93DF93EC0188819981DC01ED91FC9150
:1004E0000680F781E02D0995688779878A879B8741
:1004F000A881B98114968C911497882359F0149689
:100500001C921497ED91FC9111970190F081E02DD0
:10051000CD0109950E9443026C837D838E839F8366
:10052000DF91CF9108958F929F92AF92BF92CF9219
:10053000DF92EF92FF924B015C010E9443026B013C
:100540007C010E9443026C197D098E099F09683E57
:10055000734081059105A8F321E0821A9108A10852
:10056000B10888EEC80E83E0D81EE11CF11C81148E
:100570009104A104B10429F7FF90EF90DF90CF9090
:10058000BF90AF909F908F9008952FB7F89460918F
:10059000A3017091A4018091A5019091A6012FBFA4
:1005A0000895CF92DF92EF92FF920F931F93CF9314
:1005B000DF93EC018C858F70C884D984EA84FB8436
:1005C000811126C00E9443020C811D812E813F8132
:1005D000DC01CB01801B910BA20BB30BC816D90613
:1005E000EA06FB0660F460E070E0CB01DF91CF919A
:1005F0001F910F91FF90EF90DF90CF900895A7018A
:100600009601281B390B4A0B5B0BCA01B901EECFCF
:100610000E94C5020C811D812E813F81DC01CB012E
:10062000801B910BA20BB30BC816D906EA06FB067A
:10063000D0F2A7019601281B390B4A0B5B0BA8EEE1
:10064000B3E00E94D10FD2CF8F929F92AF92BF9210
:10065000CF92DF92EF92FF920F931F93CF93DF938E
:1006600000D0CDB7DEB76C018B01BC016E5E7F4F51
:10067000CE0101960E941501F8018785882391F02B
:10068000F894F601E484F5847894E114F104E9F433
:10069000F894F801138212827894F894F601158781
:1006A00004877894CE0101960E940A010F900F9062
:1006B000DF91CF911F910F91FF90EF90DF90CF903E
:1006C000BF90AF909F908F900895C7010E94D10274
:1006D0004B015C01C8010E94D10286169706A8064C
:1006E000B90628F0F894F801F382E282D5CFF894A5
:1006F000F701C280D3807894C114D104F9F0C60107
:100700000E94D1024B015C01C8010E94D102681510
:1007100079058A059B0550F4F894F801D382C282CA
:100720007894F894F70113830283BBCFF894F60111
:1007300082819381789476016C01DECFF894F80180
:1007400013821282EDCF2F923F924F925F926F925F
:100750007F928F929F92AF92BF92CF92DF92EF9251
:10076000FF920F931F93CF93DF938C016A017B015C
:10077000DC0153962D903C900E9443024B015C019A
:10078000F8018785882309F488C0178680899189B4
:10079000892B39F00088F189E02DD8011E968C91C3
:1007A0000995D8011A96ED91FC91EE0FFF1FE00F0D
:1007B000F11F80819181FC01E05AFF4F8E599F4FBC
:1007C00020813181FC0140805180420E531E712CEA
:1007D000612C4614570409F460C090E080E0D80111
:1007E0001A962D913C918217930708F04FC00196FD
:1007F000FC01EE0FFF1FE00FF11FC081D181FE0150
:10080000E05AFF4F208131816216730640F3329621
:1008100040815181420F531F6416750600F7F301A2
:10082000E21BF30B9F0144E0220F331F4A95E1F7CF
:10083000C20FD31F209799F28D85882319F18E85D9
:100840009D859923F9F083708230E1F4F894D80102
:100850005496DC93CE9353977894CE010E9468020D
:10086000F894F801148A138A7894BE01C8010E9492
:100870002501CE010E94D900882359F0BE01C8018C
:100880000E942403FFEF6F1A7F0AA3CFD0E0C0E0DD
:10089000D3CFCE010E94E900F5CFF894D8011C9681
:1008A000CD91DC917894209709F45FC0CE010E942D
:1008B000D102672B682B692B09F057C08C8585FD09
:1008C00029C0F894F801D48BC38B78948C8580620E
:1008D0008C878F85882349F08E8583708130F9F06D
:1008E0008230C1F5CE010E9468028C858F7D8C8795
:1008F000F894F801148A138A7894BE01C8010E9402
:100900002501CE010E94D900882359F1BE01C801FA
:100910000E942403F8940A80DB81C02DC3CF888114
:100920009981DC01ED91FC910190F081E02D099518
:10093000CE010E94D9008823C1F28F858823A9F2B5
:100940008C858F7059F40E9443026C837D838E8363
:100950009F83CBCFE881F9810995EACF0E94C50238
:10096000F4CFCE010E94E900D5CF0E94430268195E
:1009700079098A099B096C157D058E059F0508F488
:10098000FFCEF894D80154963C922E9253977894C7
:10099000DF91CF911F910F91FF90EF90DF90CF905B
:1009A000BF90AF909F908F907F906F905F904F908F
:1009B0003F902F9008950895AF92BF92CF92DF920B
:1009C000EF92FF920F931F93CF93DF936C017B0104
:1009D0008B01040F151FEB015E01AE18BF08C01795
:1009E000D10759F06991D601ED91FC910190F08108
:1009F000E02DC6010995892B79F7C501DF91CF91CB
:100A00001F910F91FF90EF90DF90CF90BF90AF902C
:100A10000895FC01538D448D252F30E0842F90E004
:100A2000821B930B541710F0CF96089501970895E9
:100A3000FC01918D828D981761F0A28DAE0FBF2FB2
:100A4000B11D5D968C91928D9F5F9F73928F90E008
:100A500008958FEF9FEF0895FC01918D828D981777
:100A600031F0828DE80FF11D858D90E008958FEFB4
:100A70009FEF0895FC01918D228D892F90E0805C7D
:100A80009F4F821B91098F739927089582EC91E003
:100A90000E943A0521E0892B09F420E0822F089575
:100AA00080E090E0892B29F00E94460581110C948A
:100AB00000000895FC01A48DA80FB92FB11DA35A01
:100AC000BF4F2C91848D90E001968F739927848F6E
:100AD000A689B7892C93A089B1898C918370806491
:100AE0008C93938D848D981306C00288F389E02D32
:100AF00080818F7D80830895EF92FF920F931F93E3
:100B0000CF93DF93EC0181E0888F9B8D8C8D9813C0
:100B10001AC0E889F989808185FF15C09FB7F894CC
:100B2000EE89FF896083E889F98980818370806418
:100B300080839FBF81E090E0DF91CF911F910F9163
:100B4000FF90EF900895F62E0B8D10E00F5F1F4F72
:100B50000F731127E02E8C8D8E110CC00FB607FC81
:100B6000FACFE889F989808185FFF5CFCE010E940F
:100B70005A05F1CFEB8DEC0FFD2FF11DE35AFF4F1E
:100B8000F0829FB7F8940B8FEA89FB89808180629D
:100B9000CFCFCF93DF93EC01888D8823B9F0AA895A
:100BA000BB89E889F9898C9185FD03C0808186FD28
:100BB0000DC00FB607FCF7CF8C9185FFF2CF808177
:100BC00085FFEDCFCE010E945A05E9CFDF91CF918D
:100BD000089581E00895089590E080E00895CF920F
:100BE000DF92EF92FF921F93CF93DF936B017C0113
:100BF000EA0183E00E94A40111E0009709F410E0EB
:100C0000109386012091000121110FC0892B69F0FA
:100C10008AE00E94A401AE01DD0F660B770B0197FD
:100C200081F4C41AD50AE60AF70A10930001C70135
:100C3000B601DF91CF911F91FF90EF90DF90CF90A1
:100C40000895C40ED51EE61EF71EEFCF8091AB01AE
:100C50009091AC01892B69F482E090E00E94B2127D
:100C600026E131E0FC01318320839093AC01809335
:100C7000AB018091AB019091AC010895CF93DF93CC
:100C8000EC018B8D9C8DDC01ED91FC910084F18554
:100C9000E02D41E06E8109958B8D9C8DDC01ED91FD
:100CA000FC910484F585E02D09958B8D9C8DDC01EC
:100CB000ED91FC910084F185E02D40E06E81099575
:100CC0008B8D9C8DDC01ED91FC910484F585E02DEC
:100CD000DF91CF910994CF92DF92EF92FF920F9321
:100CE0001F93CF93DF938C016C0127E0C20ED11CC0
:100CF000D0E0C0E0E62EF12CD8015B968D919C915E
:100D0000F60161916F01A7010C2E02C05595479520
:100D10000A94E2F74170DC01ED91FC910084F185C9
:100D2000E02D09952196C430D10531F7C801DF9136
:100D3000CF911F910F91FF90EF90DF90CF900C9487
:100D40003E06CF92DF92EF92FF920F931F93CF93C5
:100D5000DF93EC01F62E8B8D9C8DDC01ED91FC91E7
:100D60000084F185E02D6C8109956D816F3F51F014
:100D70008B8D9C8DDC01ED91FC910084F185E02D43
:100D800040E009950F2D10E08F8584FF34C06E017F
:100D9000B7E0CB0ED11CF12CE12C8B8D9C8DF60194
:100DA00061916F01A8010E2C02C0559547950A94D8
:100DB000E2F74170DC01ED91FC910084F185E02DBA
:100DC0000995BFEFEB1AFB0AE8E0EE16F10429F7EC
:100DD000CE010E943E064A8950E070E060E08DEA54
:100DE00091E0DF91CF911F910F91FF90EF90DF90F5
:100DF000CF900C94A303B80184E0759567958A950C
:100E0000E1F7CE010E946B066F2DCE010E946B06AA
:100E1000E2CF40E0682F8FE592E00C94A10690911C
:100E20007502691710F06FEF690FE62FF0E0E15AD5
:100E3000FD4F9789890F80680C94090741E00E9453
:100E4000A10681E090E008950C944E13FB010190FF
:100E50000020E9F73197AF01461B570BDC01ED91FC
:100E6000FC910280F381E02D09948F929F92AF92C2
:100E7000BF92EF92FF920F931F93CF93DF93CDB763
:100E8000DEB7A1970FB6F894DEBF0FBECDBF7C01D1
:100E9000FA01CB0119A2223008F42AE08E010F5D7D
:100EA0001F4F822E912CB12CA12CBF01A5019401C2
:100EB0000E94900FF901CA016A300CF5605DD801FB
:100EC0006E938D01232B242B252B79F790E080E066
:100ED000109721F0BD01C7010E942607A1960FB609
:100EE000F894DEBF0FBECDBFDF91CF911F910F9160
:100EF000FF90EF90BF90AF909F908F900895695CA6
:100F0000DECFCF92DF92EF92FF920F931F93CF939A
:100F1000DF9377FF21C06A017B01EC01E881F98151
:100F20000190F081E02D6DE209958C014427552751
:100F3000BA014C195D096E097F092AE0CE010E94B1
:100F40003507800F911FDF91CF911F910F91FF9077
:100F5000EF90DF90CF9008952AE0DF91CF911F911D
:100F60000F91FF90EF90DF90CF900C9435070C9489
:100F700026070F931F930E94C502009187011091CD
:100F800088012091890130918A016150710981099C
:100F90009109601771078207930708F490C00E94B7
:100FA000C5026093870170938801809389019093B3
:100FB0008A0180918B0190918C01A0918D01B0915B
:100FC0008E01892B8A2B8B2B81F460910601709105
:100FD0000701072E000C880B990B45E050E00E949A
:100FE000EF05709307016093060180918B0190914A
:100FF0008C01A0918D01B0918E010197A105B105E1
:10100000F1F560919B0170919C0180919D019091FF
:101010009E0141E050E00E94EF0560939B017093B8
:101020009C0180939D0190939E0180919B019091E2
:101030009C01A0919D01B0919E010397A105B1056E
:1010400044F010929B0110929C0110929D0110920D
:101050009E0180919B0190919C01A0919D01B09176
:101060009E01B7FF0CC082E090E0A0E0B0E080936A
:101070009B0190939C01A0939D01B0939E01809150
:101080008B0190918C01A0918D01B0918E010297FE
:10109000A105B105A1F46091010170910201809157
:1010A00003019091040140E355E70E94EF0560932E
:1010B00001017093020180930301909304016EE596
:1010C00071E082EC91E00E94B70740918B01509152
:1010D0008C0160918D0170918E0182EC91E00E94F3
:1010E000810740919B0150919C0160919D017091FD
:1010F0009E0182EC91E01F910F910C948107CF9398
:10110000DF9380917A0290917B02892B31F40E94C7
:10111000260690937B0280937A0280916E0288600B
:1011200080936E0282E0809375021092760280E4D2
:101130008093770280E18093780280E58093790242
:1011400080917A0290917B02DC01ED91FC91068006
:10115000F781E02D41E0609163020995609164029E
:101160006F3F61F080917A0290917B02DC01ED91FA
:10117000FC910680F781E02D41E0099580917A028B
:1011800090917B02DC01ED91FC910680F781E02DCE
:1011900041E0609165020995CFE5D2E09E012F55AF
:1011A000324080916E0284FD14C084E090E021966C
:1011B000281739078CF480917A0290917B02DC0128
:1011C000ED91FC910680F781E02D41E06E8109955B
:1011D000E5CF88E090E0EBCF40E553EC60E070E0D5
:1011E0008DEA91E00E94A30380917A0290917B02A4
:1011F000DC01ED91FC910084F185E02D40E06091EF
:101200006302099580917A0290917B02DC01ED9155
:10121000FC910084F185E02D40E060916502099524
:10122000609164026F3F61F080917A0290917B023D
:10123000DC01ED91FC910084F185E02D40E0099501
:1012400080917A0290917B02DC01ED91FC91048403
:10125000F585E02D099580916E0284FD5AC063E00A
:101260008FE592E00E946B0644E951E160E070E096
:101270008DEA91E00E94A30363E08FE592E00E9473
:101280006B0644E951E160E070E08DEA91E00E9474
:10129000A30363E08FE592E00E946B0646E950E00D
:1012A00060E070E08DEA91E00E94A30362E08FE5C8
:1012B00092E00E946B0680916E0280620E94090794
:1012C00084E080936F028CE00E94090781E00E9415
:1012D000090740ED57E060E070E08DEA91E00E9480
:1012E000A30382E08093700286E00E9409076CE409
:1012F00071E08FE592E00E94B70760E089E00E940C
:101300000F076EE471E08FE592E0DF91CF910C94CE
:10131000B70780620E94090744E951E160E070E08C
:101320008DEA91E00E94A30380916E0280620E9488
:10133000090746E950E060E070E08DEA91E00E9424
:10134000A30380916E0280620E940907B4CF0F93BD
:101350001F930E94C50200918F011091900120916E
:10136000910130919201685E734081099109601783
:1013700071078207930708F45EC00E94C50260935C
:101380008F017093900180939101909392018091CD
:101390008B0190918C01A0918D01B0918E010196ED
:1013A000A11DB11D80938B0190938C01A0938D01A1
:1013B000B0938E0180918B0190918C01A0918D0151
:1013C000B0918E010397A105B10544F010928B01F5
:1013D00010928C0110928D0110928E0180918B01E0
:1013E00090918C01A0918D01B0918E010297A10581
:1013F000B10519F481E080939F010E94C5026093BA
:1014000093017093940180939501909396016EE5FA
:1014100071E082EC91E00E94B70740918B015091FE
:101420008C0160918D0170918E0182EC91E01F9191
:101430000F910C9481071F910F9108951F920F92A5
:101440000FB60F9211242F933F938F939F93AF93D7
:10145000BF938091A3019091A401A091A501B091A7
:10146000A6013091A20123E0230F2D3758F50196F4
:10147000A11DB11D2093A2018093A3019093A4010B
:10148000A093A501B093A6018091A7019091A80116
:10149000A091A901B091AA010196A11DB11D80934F
:1014A000A7019093A801A093A901B093AA01BF91AD
:1014B000AF919F918F913F912F910F900FBE0F9001
:1014C0001F90189526E8230F0296A11DB11DD2CFBB
:1014D0001F920F920FB60F9211242F933F934F93A9
:1014E0005F936F937F938F939F93AF93BF93EF938C
:1014F000FF93E0910A01F0910B010995FF91EF91A3
:10150000BF91AF919F918F917F916F915F914F911B
:101510003F912F910F900FBE0F901F9018951F9223
:101520000F920FB60F9211242F933F934F935F9317
:101530006F937F938F939F93AF93BF93EF93FF939B
:10154000E0910801F09109010995FF91EF91BF9198
:10155000AF919F918F917F916F915F914F913F914B
:101560002F910F900FBE0F901F9018951F920F9202
:101570000FB60F9211242F933F934F935F936F9366
:101580007F938F939F93AF93BF93EF93FF9382ECDF
:1015900091E00E945A05FF91EF91BF91AF919F9109
:1015A0008F917F916F915F914F913F912F910F900C
:1015B0000FBE0F901F9018951F920F920FB60F92AB
:1015C00011242F938F939F93EF93FF93E091D20178
:1015D000F091D3018081E091D801F091D90182FD91
:1015E0001BC090818091DB018F5F8F732091DC01A4
:1015F000821741F0E091DB01F0E0EE53FE4F958F52
:101600008093DB01FF91EF919F918F912F910F902C
:101610000FBE0F901F9018958081F4CF8CE291E05F
:101620009093AE018093AD01EFEAF1E088E0DF0135
:101630001D928A95E9F71092BC01F8941092BA01B4
:101640001092B90178941092BE011092BD011092CF
:10165000BB0184E690E00E94B212FC019C01205A7A
:101660003F4F42E011821082448710861186128615
:1016700013861482158216821782138212821686AE
:10168000F89413821282789415867096E217F30705
:1016900049F711821082FC01EE59FF4F26E030E03D
:1016A000318320839093B0018093AF0181E090E07B
:1016B0009093B8018093B7011092C1011092C001BC
:1016C0001092BF011092C5011092C40188EE93E000
:1016D000A0E0B0E08093C6019093C701A093C80139
:1016E000B093C90182E391E09093C3018093C2015A
:1016F00085EC90E09093CF018093CE0184EC90E054
:101700009093D1018093D00180EC90E09093D3012D
:101710008093D20181EC90E09093D5018093D40125
:1017200082EC90E09093D7018093D60186EC90E014
:101730009093D9018093D8011092DB011092DC01C3
:101740001092DD011092DE0110926202109261028D
:1017500084E491E09093600280935F0288E080933C
:1017600063028FEF8093640299E090936502809307
:10177000740210927302109272020E9426069093D5
:101780007B0280937A0210927D0210927C0288E2A2
:101790008093710284E08093660285E08093670203
:1017A00086E08093680287E08093690210926A0263
:1017B00010926B0210926C0210926D0210926E02E7
:1017C0000895789484B5826084BD84B5816084BDB9
:1017D00085B5826085BD85B5816085BD80916E00CF
:1017E000816080936E001092810080918100826000
:1017F000809381008091810081608093810080913D
:1018000080008160809380008091B100846080932B
:10181000B1008091B00081608093B00080917A0027
:10182000846080937A0080917A00826080937A004D
:1018300080917A00816080937A0080917A0080683C
:1018400080937A001092C100E091D201F091D3010F
:1018500082E08083E091CE01F091CF011082E0918F
:10186000D001F091D10180E180831092DA01E09102
:10187000D601F091D70186E08083E091D401F09108
:10188000D501808180618083E091D401F091D50100
:10189000808188608083E091D401F091D5018081BE
:1018A00080688083E091D401F091D50180818F7DA3
:1018B00080830E947F0860E571E082EC91E00E94E5
:1018C00026076DE571E082EC91E00E94260761E059
:1018D00082E10E94030262E08AE00E94030262E069
:1018E00083E00E94030262E082E00E94030289EB2F
:1018F00097E090930B0180930A0180916900837FA8
:10190000846080936900E99A87EA99E090930901DD
:1019100080930801809169008C7F826080936900C8
:10192000E89A61E08BE00E94030261E08CE00E9493
:10193000030210E480E0282E80E0382E8091A00180
:101940009091A1018436910531F40E947F08109294
:10195000A1011092A0018091A0019091A101019696
:101960009093A1018093A00162E370E080E090E099
:101970000E949302CAE0D0E0C12CD12C76011093D2
:101980007C0080917A00806480937A0080917A0054
:1019900086FDFCCF8091780060917900762F682FCA
:1019A000072E000C880B990B0E9406119B01AC01BD
:1019B000C701B6010E94F20F6B017C0165E070E087
:1019C00080E090E00E9493022197C9F620E030E089
:1019D00040E251E4C701B6010E94631020E030E00C
:1019E000A9010E94F20F9B01AC0160E070EC8FE74F
:1019F00094E40E94F10F9B01AC0160E070EC8FE772
:101A000094E40E94631020E030E040E85FE30E942D
:101A1000F10F9B01AC0160E074E08CE996E40E9458
:101A2000631020E030E543EC57E40E9463100E940D
:101A3000C31120E030EE46E755E40E9463102FE02A
:101A40003FEC4BE55BE30E94F20F9B01AC0160E0D1
:101A500070E080E89FE30E94631023E333E948E8E5
:101A600053E40E94F10F6B017C0160E082E00E9470
:101A70000F0760E671E08FE592E00E94B70760E033
:101A800082E00E940F07A7019601C701B6010E94DC
:101A9000781268E671E081111BC046015701E89495
:101AA000B7F82FEF3FEF4FE75FE7C501B4010E94A2
:101AB000781281115BC12FEF3FEF4FE75FE7C50160
:101AC000B4010E945E1018160CF050C16CE671E073
:101AD0008FE592E00E94260761E082E00E940F07F6
:101AE00060E671E08FE592E00E94B70780919F0168
:101AF000882309F446C061E08AE00E940F0760E68F
:101B000071E08FE592E00E94B70761E08AE00E94F1
:101B10000F078090010190900201A0900301B09006
:101B20000401C501B40120E63AEE40E050E00E9415
:101B3000B20FBA01A9018FE592E00E94810764E724
:101B400071E08FE592E00E94B707C501B40128EE6D
:101B500033E040E050E00E94B20FCA01B9012CE32B
:101B600030E040E050E00E94B20FAB01BC018FE5D5
:101B700092E00E94810765E671E08FE592E00E94A5
:101B8000B70760E08BE00E940F074091060150917B
:101B90000701052E000C660B770B8FE592E00E9483
:101BA000810765E671E08FE592E00E94B70761E08A
:101BB00081E00E940F074091050150E070E060E075
:101BC0008FE592E00E94810761E083E00E940F07A9
:101BD00080919B0190919C01A0919D01B0919E01EB
:101BE000892B8A2B8B2B31F466E771E08FE592E02D
:101BF0000E94B70780919B0190919C01A0919D014B
:101C0000B0919E010197A105B10531F46BE771E038
:101C10008FE592E00E94B70780919B0190919C0113
:101C2000A0919D01B0919E010297A105B10531F4EB
:101C300060E871E08FE592E00E94B707A09006018E
:101C4000B0900701B5016E5F7F4F072E000C880B27
:101C5000990B0E9406119B01AC01C701B6010E94BD
:101C6000B61187FF10920501B50162507109072E68
:101C7000000C880B990B0E9406119B01AC01C70157
:101C8000B6010E945E1018161CF081E080930501D9
:101C900080919F01882309F451C00E94C50260937E
:101CA0009701709398018093990190939A0161E054
:101CB00082E00E940F07409193015091940160913E
:101CC000950170919601C0909701D0909801E09095
:101CD0009901F0909A018091010190910201A091E7
:101CE0000301B09104018C199D09AE09BF09840F4D
:101CF000951FA61FB71F8093010190930201A09327
:101D00000301B09304018091970190919801A091F3
:101D10009901B0919A018093930190939401A093BB
:101D20009501B09396018091010190910201A091DB
:101D30000301B0910401B7FD1092050180910501E6
:101D4000811194C060E08BE00E94D10160E08CE0E2
:101D50000E94D1012114310409F4F0CD0E944605FE
:101D6000882309F4EBCD0E940000E8CD2FEF3FEF70
:101D70004FE75FE4C701B6010E94B61118161CF4C4
:101D800060E771E0A5CE2FEF3FEF4FE75FECC701B3
:101D9000B6010E945E1087FDF3CF20E030E0A9017C
:101DA000C701B6010E945E1087FF5DC041E06DE291
:101DB0008FE592E00E94A106C701B60190582AE083
:101DC00037ED43EA5BE30E94F20F2B013C010E94D6
:101DD000D5104B015C010E9404119B01AC01C301B1
:101DE000B2010E94F10F2B013C012AE0B501A401D0
:101DF0008FE592E00E94350741E06EE28FE592E0C8
:101E00000E94A10620E030E040E251E4C301B201AB
:101E10000E940B122B013C010E94D5104B01B12CEA
:101E2000A12C2AE0B501A4018FE592E00E943507BC
:101E3000C501B4010E9404119B01AC01C301B201B0
:101E40000E94F10F20E030E040E251E40E940B12CA
:101E50000E94D510AB0170E060E02AE08FE592E0CF
:101E60000E94350739CEC701B601A9CF80919B01E9
:101E700090919C01A0919D01B0919E01892B8A2B8C
:101E80008B2B41F461E08BE00E94D10161E08CE09A
:101E90000E94D10180919B0190919C01A0919D0194
:101EA000B0919E010197A105B10541F461E08BE07D
:101EB0000E94D10160E08CE00E94D10180919B01E1
:101EC00090919C01A0919D01B0919E010297A10566
:101ED000B10509F03FCF60E08BE00E94D10161E0E5
:101EE00036CFCF93DF938CE291E09093AE01809355
:101EF000AD01D0E0C0E02091B7013091B801C21728
:101F0000D30758F42196FE01EE0FFF1FE355FE4F55
:101F1000808191810E944E13EECFDF91CF91089581
:101F2000A1E21A2EAA1BBB1BFD010DC0AA1FBB1FDD
:101F3000EE1FFF1FA217B307E407F50720F0A21B4F
:101F4000B30BE40BF50B661F771F881F991F1A94BC
:101F500069F760957095809590959B01AC01BD01E6
:101F6000CF010895052E97FB1EF400940E94C90F1F
:101F700057FD07D00E94900F07FC03D04EF40C943D
:101F8000C90F50954095309521953F4F4F4F5F4F6A
:101F9000089590958095709561957F4F8F4F9F4FD5
:101FA00008950E94E20FA59F900DB49F900DA49FED
:101FB000800D911D11240895EE0FFF1F0590F491DF
:101FC000E02D0994A29FB001B39FC001A39F700DA3
:101FD000811D1124911DB29F700D811D1124911D31
:101FE00008955058BB27AA270E9409100C947C1111
:101FF0000E946E1138F00E94751120F039F49F3F55
:1020000019F426F40C946B110EF4E095E7FB0C9494
:102010006511E92F0E948D1158F3BA1762077307F3
:102020008407950720F079F4A6F50C94AF110EF40F
:10203000E0950B2EBA2FA02D0B01B90190010C01D8
:10204000CA01A0011124FF27591B99F0593F50F4F0
:10205000503E68F11A16F040A22F232F342F442748
:10206000585FF3CF469537952795A795F040539540
:10207000C9F77EF41F16BA0B620B730B840BBAF010
:102080009150A1F0FF0FBB1F661F771F881FC2F77B
:102090000EC0BA0F621F731F841F48F4879577958F
:1020A0006795B795F7959E3F08F0B0CF9395880F49
:1020B00008F09927EE0F9795879508950E94411192
:1020C00008F481E008950E9477100C947C110E941E
:1020D000751158F00E946E1140F029F45F3F29F00D
:1020E0000C94651151110C94B0110C946B110E9459
:1020F0008D1168F39923B1F3552391F3951B550B7B
:10210000BB27AA2762177307840738F09F5F5F4FCA
:10211000220F331F441FAA1FA9F335D00E2E3AF009
:10212000E0E832D091505040E695001CCAF72BD021
:10213000FE2F29D0660F771F881FBB1F2617370772
:102140004807AB07B0E809F0BB0B802DBF01FF27A4
:1021500093585F4F3AF09E3F510578F00C9465110B
:102160000C94B0115F3FE4F3983ED4F386957795D5
:102170006795B795F7959F5FC9F7880F911D96955D
:10218000879597F90895E1E0660F771F881FBB1FB9
:10219000621773078407BA0720F0621B730B840B66
:1021A000BA0BEE1F88F7E09508950E94951188F00C
:1021B0009F5798F0B92F9927B751B0F0E1F0660F0B
:1021C000771F881F991F1AF0BA95C9F714C0B1304C
:1021D00091F00E94AF11B1E008950C94AF11672FF8
:1021E000782F8827B85F39F0B93FCCF3869577957B
:1021F0006795B395D9F73EF4909580957095619564
:102200007F4F8F4F9F4F0895E89409C097FB3EF48E
:1022100090958095709561957F4F8F4F9F4F992333
:10222000A9F0F92F96E9BB279395F69587957795B1
:102230006795B795F111F8CFFAF4BB0F11F460FF71
:102240001BC06F5F7F4F8F4F9F4F16C0882311F0C9
:1022500096E911C0772321F09EE8872F762F05C0DD
:10226000662371F096E8862F70E060E02AF09A9578
:10227000660F771F881FDAF7880F9695879597F96D
:102280000895990F0008550FAA0BE0E8FEEF161607
:102290001706E807F907C0F012161306E407F5075A
:1022A00098F0621B730B840B950B39F40A2661F0CE
:1022B000232B242B252B21F408950A2609F4A14071
:1022C000A6958FEF811D811D089597F99F6780E87E
:1022D00070E060E008959FEF80EC089500240A9478
:1022E0001616170618060906089500240A941216F1
:1022F0001306140605060895092E0394000C11F424
:10230000882352F0BB0F40F4BF2B11F460FF04C0D0
:102310006F5F7F4F8F4F9F4F089557FD9058440F29
:10232000551F59F05F3F71F04795880F97FB991F34
:1023300061F09F3F79F087950895121613061406F1
:10234000551FF2CF4695F1DF08C01616170618067E
:10235000991FF1CF86957105610508940895E89459
:10236000BB2766277727CB0197F908950E94411173
:1023700008F48FEF089516F00C947D120C946B11F5
:1023800068940C9465110E949511A8F39923C1F3E8
:10239000AEF3DF93CF931F930F93FF92C92FDD27E7
:1023A00088232AF02197660F771F881FDAF720E02D
:1023B00030E040E85FEB9FE3883920F0803E38F062
:1023C00021968F770E94F20FE8E6F0E004C00E94A9
:1023D000F20FE5E9F0E00E948B128B01BE01EC01E7
:1023E000FB2E6F5771097595771F880B990B0E940B
:1023F000061128E132E741E35FE30E941E12AF2D90
:102400009801AE01FF900F911F91CF91DF910E9433
:1024100009100C947C110E941E120C947C110E94D5
:102420006E1138F00E94751120F0952311F00C9474
:1024300065110C946B1111240C94B0110E948D1134
:1024400070F3959FC1F3950F50E0551F629FF00107
:10245000729FBB27F00DB11D639FAA27F00DB11D20
:10246000AA1F649F6627B00DA11D661F829F2227A9
:10247000B00DA11D621F739FB00DA11D621F839F30
:10248000A00D611D221F749F3327A00D611D231F06
:10249000849F600D211D822F762F6A2F11249F5754
:1024A00050409AF0F1F088234AF0EE0FFF1FBB1F57
:1024B000661F771F881F91505040A9F79E3F510516
:1024C00080F00C9465110C94B0115F3FE4F3983EDA
:1024D000D4F3869577956795B795F795E7959F5FC0
:1024E000C1F7FE2B880F911D9695879597F9089552
:1024F0000E944111880B990B08959F3F31F0915034
:1025000020F4879577956795B795880F911D9695D7
:10251000879597F90895DF93CF931F930F93FF92B9
:10252000EF92DF927B018C01689406C0DA2EEF01F6
:102530000E941E12FE01E894A591259135914591C6
:102540005591A6F3EF010E940910FE019701A80121
:10255000DA9469F7DF90EF90FF900F911F91CF9180
:10256000DF9108950F931F93CF93DF9382309105EE
:1025700010F482E090E0E0918002F091810230E07E
:1025800020E0B0E0A0E0309799F42115310509F47E
:102590004AC0281B390B24303105D8F58A819B812C
:1025A0006115710589F1FB0193838283FE0111C0DE
:1025B000408151810281138148175907E0F0481783
:1025C000590799F4109761F012960C93129713968D
:1025D0001C933296CF01DF91CF911F910F910895F7
:1025E0000093800210938102F4CF2115310551F040
:1025F0004217530738F0A901DB019A01BD01DF0141
:10260000F801C1CFEF01F9CF90938102809380024E
:10261000CDCFFE01E20FF31F819391932250310938
:1026200039832883D7CF20917E0230917F02232BDC
:1026300041F420910E0130910F0130937F022093DD
:102640007E0220910C0130910D012115310541F4DC
:102650002DB73EB74091100150911101241B350B4D
:10266000E0917E02F0917F02E217F307A0F42E1BA7
:102670003F0B2817390778F0AC014E5F5F4F2417E6
:10268000350748F04E0F5F1F50937F0240937E0244
:10269000819391939FCFF0E0E0E09CCFCF93DF93C5
:1026A0000097E9F0FC01329713821282A091800218
:1026B000B0918102ED0130E020E01097A1F420817B
:1026C0003181820F931F20917E0230917F02281763
:1026D000390709F061C0F0937F02E0937E02DF9139
:1026E000CF910895EA01CE17DF07E8F54A815B81B3
:1026F0009E0141155105B1F7E901FB83EA83499138
:102700005991C40FD51FEC17FD0761F480819181A9
:102710000296840F951FE9019983888382819381B2
:102720009B838A83F0E0E0E012968D919C91139751
:102730000097B9F52D913C911197CD010296820F2A
:10274000931F20917E0230917F022817390739F6B6
:10275000309751F51092810210928002B0937F025F
:10276000A0937E02BCCFD383C28340815181840F6A
:10277000951FC817D90761F44E5F5F4F8881998113
:10278000480F591F518340838A819B8193838283A1
:102790002115310509F0B0CFF0938102E09380025A
:1027A0009ECFFD01DC01C0CF13821282D7CF10E093
:1027B000CFE8D0E004C0FE010E94DC0F2196C039B2
:0827C000D107C9F7F894FFCF1F
:1027C80001804F1200019600DB04DB040000820246
:1027D800800000000000D700D80024073F02FF0156
:1027E800CD01E905C900BB0000000000A3030000FB
:1027F80000007C05DC040905C9053A0518052C0507
:10280800000000001E07DC04EC05EB0554004E0038
:102818007372635C6D61696E2E637070000D0A00DF
:1028280020202020202020006E616E00696E660046
:102838006F7666003A004720204400472020200099
:06284800202020440000E6
:00000001FF
